:1000000009C00EC00DC00DC00BC00AC027C01BC068
:1000100007C006C011241FBECFE9CDBF4FD053C0CB
:10002000EFCF1F920F920FB60F9211248F939F93D1
:1000300098B384E0892788BB9F918F910F900FBE62
:100040000F901F9018951F920F920FB60F921124C8
:1000500000000F900FBE0F901F9018951F920F92E7
:100060000FB60F9211242F933F934F935F936F938B
:100070007F938F939F93AF93BF93EF93FF93E3DFB0
:10008000FF91EF91BF91AF919F918F917F916F9170
:100090005F914F913F912F910F900FBE0F901F9046
:1000A000189585E087BB8AE388BB83B7816083BFEF
:1000B00089B7826089BF479A18BE0895F894F1DF26
:0A00C00078940000FECFF894FFCF03
:00000001FF
