:1000000009C016C015C014C013C012C012C010C061
:100010000FC00EC011241FBECFE9CDBF20E0A0E667
:10002000B0E001C01D92A336B207E1F74DD050C039
:10003000E7CF1F920F920FB60F9211242F938F9339
:100040009F9380916100909162000196909362006D
:100050008093610080916100909162008C3697409E
:1000600020F01092620010926100809161009091E6
:1000700062008536910520F481E08093600002C023
:10008000109260009F918F912F910F900FBE0F9053
:100090001F90189588E087BB87E388BB479A83B792
:1000A000826083BF89B7846089BF8FB582608FBD4E
:1000B00086E986BF18BE089580916000882311F0FC
:1000C000C39A0895C3980895E5DF7894F5DFFECFCD
:0400D000F894FFCFD2
:00000001FF
