:1000000009C021C020C01FC01EC01DC01DC01BC014
:100010001AC019C011241FBECFE9CDBF10E0A0E661
:10002000B0E0EAE2F1E002C005900D92A236B1071D
:10003000D9F720E0A2E6B0E001C01D92A836B207D1
:10004000E1F76DD070C0DCCF1F920F920FB60F9208
:1000500011242F933F938F939F93809164009091ED
:100060006500019690936500809364002091600084
:10007000309161008217930778F1809162008111BD
:100080001BC01092650010926400309367002093AB
:10009000660088EE93E0821B930B9093610080933F
:1000A000600021E020936200209363001816190677
:1000B00098F081E0882381F010926500109264002E
:1000C000809166009091670090936100809360003A
:1000D00010926200109263009F918F913F912F9137
:1000E0000F900FBE0F901F9018958DE187BB82E295
:1000F00088BB479A83B7826083BF89B7846089BF12
:100100008FB582608FBD86E986BF18BE0895809145
:100110006300882311F0C2980895C29A0895E5DF1C
:0A0120007894F5DFFECFF894FFCFCE
:02012A003200A1
:00000001FF
