S01D0000427574746F6E5F4D756C7469706C795F4D6F6465732E7372656375
S113000009C016C015C014C013C012C011C010C05E
S11300100FC00EC011241FBECFE9CDBF20E0A0E663
S1130020B0E001C01D92A236B207E1F707D038C094
S1130030E7CF8DE187BB82E288BB0895FADF91E0C8
S1130040B1991BC0EFE6F7E13197F1F700C000006A
S1130050B19913C08091600081110FC0909360002A
S1130060809161008F5F833018F48093610005C034
S11300701092610088B3837F88BBB19B06C08091D6
S11300806000813011F41092600080916100813031
S113009009F4C29A80916100823091F6C39AD0CF5C
S10700A0F894FFCFFE
S9030000FC
