:1000000009C017C015C014C013C012C011C010C061
:100010000FC00EC011241FBECFE9CDBF20E0A0E667
:10002000B0E001C01D92A036B207E1F72FD032C078
:10003000E7CF1F920F920FB60F9211248F939F93C9
:1000400098B388E0892788BB9F918F910F900FBE4E
:100050000F901F9018958DE187BB82E288BB80E4EA
:100060008BBF85B7826085BF85B78E7F85BF0895BA
:1000700098B384E0892788BB2FEB84ED91E0215071
:1000800080409040E1F700C000000895E4DF7894DC
:08009000EFDFFECFF894FFCF73
:00000001FF
