:1000000009C017C015C014C013C012C011C010C061
:100010000FC00EC011241FBECFE9CDBF20E0A0E667
:10002000B0E001C01D92A136B207E1F737D03BC066
:10003000E7CF1F920F920FB60F9211248F939F93C9
:10004000C39A87E99AE30197F1F700C00000C398CB
:100050009F918F910F900FBE0F901F90189587B3AF
:10006000886187BB88B3826288BB08958BB7806440
:100070008BBF85B7826085BF85B78E7F85BF0895AA
:1000800088B390E1892788BB2FEB84ED91E0215064
:1000900080409040E1F700C000000895E0DFE6DF17
:0A00A0007894EEDFFECFF894FFCF56
:00000001FF
