:1000000009C016C015C014C013C012C012C010C061
:100010000FC00EC011241FBECFE9CDBF20E0A0E667
:10002000B0E001C01D92A336B207E1F746D04EC042
:10003000E7CF1F920F920FB60F9211242F938F9339
:100040009F9380916100909162000196843F21E02E
:10005000920728F4909362008093610007C0109289
:1000600062001092610081E0809360009F918F9107
:100070002F910F900FBE0F901F9018958DE187BBA9
:1000800082E288BB479A83B7826083BF89B7846066
:1000900089BF8FB582608FBD86E986BF18BE08957F
:1000A00080916000882341F098B388E0892788BB5D
:1000B000F8941092600078940895E0DF7894F0DF6F
:1000C000B19902C0C29AFBCFC298F9CFF894FFCF82
:00000001FF
