:1000000009C016C015C014C013C012C011C010C062
:100010000FC00EC011241FBECFE9CDBF20E0A0E667
:10002000B0E001C01D92A236B207E1F709D03AC094
:10003000E7CF87B3886187BB88B3876288BB0895A1
:10004000F8DF91E0B09915C0EFE6F7E13197F1F7ED
:1000500000C00000B0990DC080916000811109C0FE
:1000600080916100909360008F5F8330A8F480934B
:100070006100B09B06C080916000811102C0909326
:10008000600080916100813009F4C39A8091610021
:100090008230C1F6C49AD6CF1092610088B3877EB1
:0800A00088BBE7CFF894FFCF05
:00000001FF
