S0140000446F75626C655F436C69636B2E7372656370
S113000009C016C015C014C013C012C011C010C05E
S11300100FC00EC011241FBECFE9CDBF20E0A0E663
S1130020B0E001C01D92A836B207E1F722D049C062
S1130030E7CF8DE187BB82E288BB479A83B78160B3
S113004083BF18BE089598B384E0892788BB8FE2E4
S113005095E70197F1F700C00000089598B388E090
S1130060892788BB8FE295E70197F1F700C000006C
S11300700895DFDF0F2EFAE0EF2EF12CF02D09E1C9
S113008010E0CFE0D0E0F0926300E09262001093C1
S1130090610000936000D0936700C0936600D3DFD3
S11300A080916600909167008B309105C4F70A97A0
S11300B054F7D4DF80916600909167000A97CCF3DF
S10900C0E2CFF894FFCF2B
S9030000FC
