:1000000009C021C04CC01FC01EC01DC01CC01BC0E9
:100010001AC019C011241FBECFE9CDBF10E0A0E661
:10002000B0E0E6E2F1E002C005900D92A236B10721
:10003000D9F720E0A2E6B0E001C01D92A436B207D5
:10004000E1F752D06EC0DCCFBA9ABC98C49ABD9882
:10005000C59A08958BB780628BBFAC9A089588B318
:1000600094E0892788BB2FEB84ED91E021508040FC
:100070009040E1F700C000000895C29A87E99AE332
:100080000197F1F700C00000C2989FE329E181E0E9
:10009000915020408040E1F700C0000008951F9279
:1000A0000F920FB60F9211248F93B49910C08091C4
:1000B0006100882361F01092610080916300837079
:1000C00080936300809163008F5F80936300B49B93
:1000D00005C0809160008111109260008F910F9097
:1000E0000FBE0F901F901895AFDFB4DF7894D1E06A
:1000F000F89478949091630080916200981305C001
:10010000B49BF6CFD0936100F3CF809163008093CE
:100110006200C0E080916300C81790F7AEDFCF5F48
:06012000F9CFF894FFCFB7
:020126000101D5
:00000001FF
