:1000000009C016C015C014C013C012C012C010C061
:100010000FC00EC011241FBECFE9CDBF20E0A0E667
:10002000B0E001C01D92A336B207E1F742D045C04F
:10003000E7CF1F920F920FB60F9211248F939F93C9
:1000400080916100909162008B3F910530F40196A0
:1000500090936200809361000AC010926200109237
:1000600061009091600081E08927809360009F91FA
:100070008F910F900FBE0F901F90189588E087BB4F
:1000800087E388BB479A83B7826083BF89B7846060
:1000900089BF8FB582608FBD86E986BF18BE08957F
:1000A00080916000882321F098B388E0892788BB7D
:0E00B0000895E4DF7894F4DFFECFF894FFCFDC
:00000001FF
