:1000000009C016C015C014C013C012C012C010C061
:100010000FC00EC011241FBECFE9CDBF20E0A0E667
:10002000B0E001C01D92A336B207E1F747D04BC044
:10003000E7CF1F920F920FB60F9211248F939F93C9
:1000400080916100909162008B3F910580F48091D6
:10005000610090916200019690936200809361002C
:100060009F918F910F900FBE0F901F901895109237
:100070006200109261008091600091E08927809376
:100080006000EECFBB9A88B3876388BB479A089518
:1000900083B7826083BF8FB582608FBD86E986BFDC
:1000A00089B7846089BF18BE089580916000882355
:1000B00021F088B398E0892788BB0895E3DFE8DF63
:0A00C0007894F3DFFECFF894FFCF31
:00000001FF
