:1000000009C00EC00DC00CC00BC00AC009C008C09A
:1000100007C006C011241FBECFE9CDBF12D039C022
:10002000EFCFBD98C59AB89ABB98A39A089587B1A7
:10003000836087B93D9A329A379A0895369A85B186
:100040000895EFDFF4DFC1E0F9DF863050F488B3C4
:100050008C2788BB87E99AE30197F1F700C000007D
:10006000F3CF93E8980F953040F488B38C2788BB82
:100070008FE295E70197F1F7F1CF8A3F40F088B31F
:100080008C2788BB8FE59AEE0197F1F7E7CFC098F0
:06009000DBCFF894FFCF66
:00000001FF
