:1000000009C016C015C014C013C012C012C010C061
:100010000FC00EC011241FBECFE9CDBF20E0A0E667
:10002000B0E001C01D92A836B207E1F797D0ABC08F
:10003000E7CF1F920F920FB60F9211242F938F9339
:100040009F9380916600909167000196909367005E
:10005000809366008091660090916700803991409E
:1000600061F4109267001092660080916200813006
:1000700021F410926200809361009F918F912F91E3
:100080000F900FBE0F901F9018958DE187BB82E2F5
:1000900088BB479A83B7826083BF89B7846089BF72
:1000A0008FB582608FBD86E986BF18BE089598B36C
:1000B00084E0892788BB089598B388E0892788BBA6
:1000C0000895B19932C08FE697E10197F1F700C02A
:1000D0000000B1992AC080916300811126C081E09F
:1000E00080936300F894809162008F5F8093620038
:1000F000789480916200813051F4F89410926700F6
:1001000010926600789410926500109264008091BD
:100110006200823051F410926200809166009091EA
:1001200067009093650080936400B19B06C0809146
:100130006300813011F4109263000895809164008F
:100140009091650001978039914038F481E0809367
:1001500060001092650010926400089596DF789414
:10016000B0DFECDF80916000813019F4A5DF1092E0
:10017000600080916100813099F799DFF8941092C6
:0A01800061007894EDCFF894FFCFF2
:00000001FF
